:100000000EC01DC01CC01BC01AC019C018C017C02C
:1000100016C015C014C013C012C011C010C01124E6
:100020001FBECFE5D2E0DEBFCDBF20E0A0E6B0E04E
:1000300001C01D92A136B207E1F7C3D0C4C0E0CF22
:1000400029D00895CF93DF9300D01F92CDB7DEB7AC
:1000500098E399838A836B8363E0CE01019655D040
:100060000F900F900F90DF91CF910895CF93DF9372
:1000700000D01F92CDB7DEB791E099838A8363E009
:10008000CE01019642D08B810F900F900F90DF919F
:10009000CF9108950AD084E0E9DF682F606284E0A0
:1000A000D1DF63E083E0CEDF0895C09AC29ABA9AA6
:1000B000B89A8FEF8FB98AE28DB980EF8EB9089523
:1000C0008EB98BE297E09A95F1F78DB9B29BFECF8E
:1000D00093E09A95F1F700008DB9769BF3CF87E016
:1000E0008A95F1F78FB19FEF9FB9B89A0895C0989C
:1000F000C29AB29BFECF83E08A95F1F70000C09AC6
:1001000087E08A95F1F781E008950F931F93CF93CD
:10011000DF93C62F21E020936000FC01208120FDA9
:1001200004C021E0226020936000C29AB29BFECFFF
:10013000F3E0FA95F1F70000C09823E02A95F1F773
:100140000000C298C09A8C01DFEF9091600093701C
:1001500001F1C298F80180818FB980EFB1DFB898C2
:100160008EEFAEDF80FF0FC090916000892F81700D
:1001700090FF05C086E08093600080E01DC095E0A0
:100180009093600019C0809160008E7F8093600022
:100190000CC0B89880EF94DFF8018083C13011F46F
:1001A000DFB901C01FB88EEF8BDFC1500F5F1F4F4B
:1001B000C111CBCF9CDF81E0DF91CF911F910F91D7
:0A01C00008953EDFFFCFF894FFCF53
:00000001FF
